:020000040800F2
:1000000000280020911500086914000871140008E8
:100010007914000881140008891400080000000009
:100020000000000000000000000000009114000823
:100030009D14000800000000A9140008B514000871
:10004000D9150008D9150008D9150008D9150008D8
:10005000D9150008D9150008D9150008D9150008C8
:10006000D9150008D9150008D9150008D9150008B8
:10007000D9150008D9150008D9150008D9150008A8
:10008000D9150008D9150008D9150008D915000898
:10009000D9150008D9150008D9150008D915000888
:1000A000D9150008D9150008D9150008D915000878
:1000B000C1140008D915000800000000D915000877
:1000C000D91500080000000000000000D915000844
:1000D00000000000D9150008D91500080000000034
:1000E000D9150008D9150008D9150008000000002E
:1000F0000000000000000000000000000000000000
:0C01000000000000000000005FF808F1A3
:10010C0010B5054C237833B9044B13B10448AFF345
:10011C0000800123237010BD80000020000000002F
:10012C00582C000808B5034B1BB103490348AFF327
:10013C00008008BD0000000084000020582C00083E
:10014C0080B483B000AF7860094A7B6852F82330E2
:10015C00012B06D1064A7B68002142F823100123AB
:10016C0000E0002318460C37BD4680BC704700BF2A
:10017C009C00002080B483B000AF7860044A7B6898
:10018C00012142F8231000BF0C37BD4680BC7047DC
:10019C009C00002080B582B000AF78607B68022B99
:1001AC0017D07B68022B1BDC7B68002B03D07B6891
:1001BC00012B07D014E04FF400610C4801F018FD3E
:1001CC0003460EE04FF48051084801F011FD034640
:1001DC0007E04FF40051054801F00AFD034600E02A
:1001EC00002318460837BD4680BD00BF00080140FB
:1001FC0080B582B000AF00237B605CE0324A7B6844
:10020C0052F8232031497B6841F82320304A7B681F
:10021C0052F823202C497B6841F823207868FFF79B
:10022C00B9FF034619462A4A7B6842F82310264A2E
:10023C007B6852F8232025497B6851F823309A4279
:10024C0036D1214A7B6852F8232021497B6851F82A
:10025C0023309A422CD11E4A7B6852F823201D4928
:10026C007B6851F823309A4214D0194A7B6852F8B3
:10027C00232018497B6841F82320164A7B6852F8E2
:10028C002330012B14D1144B64221A607868FFF7C9
:10029C0071FF0DE0104B1B68013B0F4A13600E4BB6
:1002AC001B68002B04D10B4A7B68002142F82310F9
:1002BC007B6801337B607B68022B9FDD00BF00BF36
:1002CC000837BD4680BD00BFB4000020A800002048
:1002DC00C0000020CC000020D800002080B500AF6A
:1002EC00204B1B6840F2E732934214D0B3F57A7F6F
:1002FC0035DAB3F5DE7F29D0B3F5DE7F2FDC40F2A3
:10030C004D12934219D0B3F5A77F28DA6F2B06D084
:10031C00DE2B09D023E0134B6F221A6020E000F093
:10032C0023F800F02BFA1BE000F022FB00F026FA79
:10033C0000F082FA00F0D0FA12E000F019FB00F0A5
:10034C001DFA00F079FA00F0C7FA09E000F010FB92
:10035C0000F014FA00F070FA00F0BEFA00E000BFF2
:10036C0000BF80BD0000002080B500AFB24B1B6801
:10037C0040F2E73293420ED0B3F57A7F80F2E480FC
:10038C00212B00F0A280212B00F3DE800B2B1DD043
:10039C00162B5BD0D8E0A84B0B221A60A74B1B681E
:1003AC00A74A1360A54B1B684FF47A7202FB03F348
:1003BC001946002001F08EF86421022001F08AF821
:1003CC004FF47A71042001F085F8C4E09D4B1B6852
:1003DC00012B19D1984B21221A609B4B1B68984A10
:1003EC001360994B1B684FF47A7202FB03F31946A6
:1003FC00002001F06FF86421022001F06BF84FF43B
:10040C007A71042001F066F80B2000F029FB8D4B6B
:10041C009B68012B0AD16421022001F05BF8884B08
:10042C001B68184600F0B8FC00F0FEFC854B1B69FD
:10043C00012B40F08B80824B1B68013B804A136080
:10044C004FF47A71042001F045F87FE07D4B1B6876
:10045C00012B19D1784B0B221A60784B1B68784A08
:10046C001360764B1B684FF47A7202FB03F3194648
:10047C00002001F02FF86421022001F02BF84FF43A
:10048C007A71042001F026F8162000F0E9FA6D4B81
:10049C009B68012B0AD16421022001F01BF8684BE8
:1004AC001B68184600F078FC00F0BEFC654B1B691D
:1004BC00012B4DD14FF47A71042001F00BF8604BF5
:1004CC001B68013B5E4A136042E05E4B1B68012BCC
:1004DC0019D1594B16221A605C4B1B68584A136091
:1004EC005A4B1B684FF47A7202FB03F31946002037
:1004FC0000F0F0FF6421022000F0ECFF4FF47A7161
:10050C00042000F0E7FF212000F0AAFA4D4B9B6875
:10051C00012B0AD16421022000F0DCFF484B1B6840
:10052C00184600F039FC00F07FFC464B1B69012B90
:10053C0010D14FF47A71042000F0CCFF404B1B68B3
:10054C00013B3F4A136005E000BF04E000BF02E03E
:10055C0000BF00E000BF3E4B1B6840F2E732934205
:10056C000ED0B3F57A7F80F2F580212B00F0B380AA
:10057C00212B00F3EF800B2B1DD0162B6CD0E9E058
:10058C00334B21221A60304B1B68324A13602E4BBE
:10059C001B684FF47A7202FB03F31946012000F03A
:1005AC0099FF6421032000F095FF4FF47A71052028
:1005BC0000F090FFD5E0234B5B68012B19D1244B45
:1005CC0021221A60204B1B68224A13601E4B1B68A9
:1005DC004FF47A7202FB03F31946012000F07AFF04
:1005EC006421032000F076FF4FF47A71052000F0AF
:1005FC0071FF0B2000F0A2FA124BDB68012B0AD121
:10060C006421032000F066FF124B1B68184600F0B3
:10061C00E7FB00F043FC0B4B5B69012B40F09C802B
:10062C004FF47A71052000F055FF0A4B1B68013B13
:10063C00084A136090E000BF040000200C0000206A
:10064C00DC0000201002002014000020100000200C
:10065C0008000020E0000020434B5B68012B19D1FF
:10066C00424B0B221A60424B1B68424A1360404BB0
:10067C001B684FF47A7202FB03F31946012000F059
:10068C0029FF6421032000F025FF4FF47A71052027
:10069C0000F020FF162000F051FA334BDB68012BE1
:1006AC000AD16421032000F015FF324B1B68184659
:1006BC0000F096FB00F0F2FB2B4B5B69012B4DD14C
:1006CC004FF47A71052000F005FF2A4B1B68013BA3
:1006DC00284A136042E0244B5B68012B19D1234B51
:1006EC0016221A60244B1B68224A1360224B1B688B
:1006FC004FF47A7202FB03F31946012000F0EAFE74
:10070C006421032000F0E6FE4FF47A71052000F01E
:10071C00E1FE212000F012FA134BDB68012B0AD109
:10072C006421032000F0D6FE124B1B68184600F023
:10073C0057FB00F0B3FB0C4B5B69012B10D14FF452
:10074C007A71052000F0C6FE0A4B1B68013B094A72
:10075C00136005E000BF04E000BF02E000BF00E052
:10076C0000BF00BF80BD00BF1002002008000020A9
:10077C000C000020E00000201000002080B500AF2D
:10078C000020FFF7DDFC0346012B40D1214B1B68F9
:10079C00214A1360214B1B68214A1360214B1B68B3
:1007AC00214A1360372000F05BF9372000F0C6F9BE
:1007BC001E4B1B68B3F5DE7F1CD0B3F5DE7F25DC4A
:1007CC0040F24D12934210D0B3F5A77F1EDA6F2B77
:1007DC0002D0DE2B04D019E0144BDE221A6016E096
:1007EC00124B40F24D121A6011E0104B4FF4DE72B6
:1007FC001A600CE00D4B6F221A600D4B40F2E73281
:10080C001A600C4B40F2E7321A6000E000BF00BFE8
:10081C0080BD00BF0C00002018000020100000203C
:10082C001C000020140000202000002000000020EC
:10083C00040000200800002080B500AF0120FFF765
:10084C007FFC0346012B3CD11F4B1B68B3F5DE7FAD
:10085C0023D0B3F5DE7F2DDCDE2B04D040F24D121D
:10086C0093420DD026E0194B1B680133174A1360D5
:10087C00164B1B68632B1FDD144B01221A601BE007
:10088C00134B1B680133124A1360114B1B68632B0B
:10089C0014DD0F4B01221A6010E00E4B1B68013364
:1008AC000C4A13600B4B1B68632B09DD094B0122AF
:1008BC001A6005E000BF04E000BF02E000BF00E0EA
:1008CC0000BF00BF80BD00BF00000020180000204A
:1008DC001C0000202000002080B500AF0220FFF794
:1008EC002FFC0346012B33D11A4B1B68B3F5DE7F6B
:1008FC0021D0B3F5DE7F2ADCDE2B04D040F24D1282
:10090C0093420CD023E0144B1B68144A1360134B16
:10091C001A68134B1B68D31A124A136018E0124B57
:10092C001B680F4A13600D4B1A680D4B1B68D31ACA
:10093C000C4A13600CE00D4B1B680A4A1360084B01
:10094C001A68084B1B681344044A136000E000BF8C
:10095C0000BF80BD00000020180000200C0000200B
:10096C0010000020140000201C000020200000209B
:10097C0080B500AF354B1B68B3F5DE7F45D0B3F5C2
:10098C00DE7F60DCDE2B04D040F24D1293421ED091
:10099C0059E00B2000F040F92D4B1B68184600F075
:1009AC00FBF900F041FA01224FF40071294801F0E3
:1009BC0036F900224FF48061264801F030F902200C
:1009CC0000F0A4F94FF4FA7000F064FE3CE016203D
:1009DC0000F022F9204B1B68184600F0DDF900F0FE
:1009EC0023FA01224FF400711A4801F018F9002281
:1009FC004FF48061174801F012F9032000F086F9DA
:100A0C004FF4FA7000F046FE1EE0212000F004F9CD
:100A1C00124B1B68184600F0BFF900F005FA0122D2
:100A2C004FF400710B4801F0FAF800224FF480618A
:100A3C00084801F0F4F8042000F068F94FF4FA705B
:100A4C0000F028FE00E000BF00BF80BD00000020C9
:100A5C0018000020000801401C000020200000208D
:100A6C0080B582B000AF78607B682C2B3FD07B6860
:100A7C002C2B4CDC7B68212B29D07B68212B46DC72
:100A8C007B680B2B03D07B68162B10D03FE0002229
:100A9C000221294801F0C3F801220421264801F063
:100AAC00BEF801220821244801F0B9F83FE00122E8
:100ABC000221214801F0B3F8002204211E4801F064
:100ACC00AEF8012208211C4801F0A9F82FE0012200
:100ADC000221194801F0A3F801220421164801F063
:100AEC009EF800220821144801F099F81FE000221A
:100AFC000221114801F093F8002204210E4801F064
:100B0C008EF8002208210C4801F089F80FE0012230
:100B1C000221094801F083F801220421064801F062
:100B2C007EF801220821044801F079F800BF00BFCB
:100B3C000837BD4680BD00BF0008014080B582B0BB
:100B4C0000AF78607B682C2B3FD07B682C2B4CDC67
:100B5C007B68212B29D07B68212B46DC7B680B2BF7
:100B6C0003D07B68162B10D03FE0002210212948BF
:100B7C0001F055F801222021264801F050F80122FD
:100B8C004021244801F04BF83FE00122102121487C
:100B9C0001F045F8002220211E4801F040F8012206
:100BAC0040211C4801F03BF82FE00122102119488C
:100BBC0001F035F801222021164801F030F800220E
:100BCC004021144801F02BF81FE00022102111489D
:100BDC0001F025F8002220210E4801F020F8002217
:100BEC0040210C4801F01BF80FE0012210210948AC
:100BFC0001F015F801222021064801F010F801221D
:100C0C004021044801F00BF800BF00BF0837BD4677
:100C1C0080BD00BF0008014080B582B000AF786095
:100C2C007B68212B1BD07B68212B21DC7B680B2B59
:100C3C0003D07B68162B09D01AE002210F4801F073
:100C4C0006F810210D4801F002F812E004210B48BF
:100C5C0000F0FDFF2021094800F0F9FF09E0082110
:100C6C00064800F0F4FF4021044800F0F0FF00E0DB
:100C7C0000BF00BF0837BD4680BD00BF0008014063
:100C8C0080B584B000AF78607B68002B1EDB7B687E
:100C9C00092B1BDC0023FB6014E00122FB6802FA29
:100CAC0003F399B217487A681346DB009B1AC218F3
:100CBC00FB6813441B781A46134800F0B0FFFB681E
:100CCC000133FB60FB68062BE7DD17E00023BB60FC
:100CDC0010E00122BB6802FA03F399B2094ABB681F
:100CEC00134446331B781A46074800F098FFBB683C
:100CFC000133BB60BB68062BEBDD00BF00BF1037B8
:100D0C00BD4680BD24000020000C014080B584B09D
:100D1C0000AF78607B68002B1EDB7B68092B1BDC2B
:100D2C000023FB6014E08022FB6802FA03F399B203
:100D3C0017487A681346DB009B1AC218FB681344E9
:100D4C001B781A46134800F06AFFFB680133FB60FE
:100D5C00FB68062BE7DD17E00023BB6010E0802268
:100D6C00BB6802FA03F399B2094ABB6813444633D1
:100D7C001B781A46074800F052FFBB680133BB6072
:100D8C00BB68062BEBDD00BF00BF1037BD4680BD36
:100D9C0024000020000C014080B483B000AF7860C8
:100DAC007B680D4A82FB03129210DB17D31A0B4A95
:100DBC0013607968084B83FB01239A10CB17D21A66
:100DCC0013469B0013445B00CA1A044B5A6000BFC5
:100DDC000C37BD4680BC704767666666E400002031
:100DEC0080B483B000AF78607B680D4A82FB03123D
:100DFC009210DB17D31A0B4A93607968084B83FB6C
:100E0C0001239A10CB17D21A13469B0013445B0094
:100E1C00CA1A044BDA6000BF0C37BD4680BC704761
:100E2C0067666666E400002080B500AF184B1B684F
:100E3C00002B02D0012B14D027E000228021154872
:100E4C0000F0EDFE01224FF48071124800F0E7FE35
:100E5C00114B1B681846FFF713FF0D4B01221A604C
:100E6C0013E0012280210B4800F0D9FE00224FF440
:100E7C008071084800F0D3FE074B5B681846FFF7FB
:100E8C00FFFE034B00221A6000BF00BF80BD00BFF5
:100E9C00F400002000080140E400002080B500AF01
:100EAC00194B1B68002B02D0012B15D029E0002216
:100EBC004FF40071154800F0B2FE01224FF480612E
:100ECC00124800F0ACFE124B9B681846FFF71EFF51
:100EDC000D4B01221A6014E001224FF400710B48F3
:100EEC0000F09DFE00224FF48061084800F097FE50
:100EFC00074BDB681846FFF709FF034B00221A600B
:100F0C0000BF00BF80BD00BFF800002000080140FA
:100F1C00E400002080B500AF00F05AFB00F014F89C
:100F2C0000F09AF800F04CF8054801F0D7FA0A22C4
:100F3C000121044800F0FAF800F0B8F9FCE700BF12
:100F4C00FC000020E902000880B590B000AF07F16A
:100F5C00180328220021184601F04CFE3B1D0022EC
:100F6C001A605A609A60DA601A610223BB6101232D
:100F7C00BB621023FB6200237B6307F11803184646
:100F8C0000F07EFE0346002B01D000F0C9F80F23C1
:100F9C007B600023BB600023FB6000233B610023CC
:100FAC007B613B1D0021184601F0ECF80346002B39
:100FBC0001D000F0B5F800BF4037BD4680BD000041
:100FCC0080B586B000AF07F1080300221A605A60A2
:100FDC009A60DA603B4600221A605A601D4B4FF053
:100FEC0080421A601B4B41F63F725A60194B00222B
:100FFC009A60184B0922DA60164B00221A61154BC5
:10100C0000229A61134801F019FA0346002B01D013
:10101C0000F086F84FF48053BB6007F108031946C3
:10102C000C4801F097FB0346002B01D000F078F838
:10103C0000233B6000237B603B461946054801F0CA
:10104C006FFD0346002B01D000F06AF800BF183783
:10105C00BD4680BDFC00002080B586B000AF07F116
:10106C00080300221A605A609A60DA60294B9B6967
:10107C00284A43F004039361264B9B6903F0040355
:10108C007B607B68234B9B69224A43F00803936186
:10109C00204B9B6903F008033B603B68002240F245
:1010AC00FE711D4800F0BBFD002243F6FF711B488A
:1010BC0000F0B5FD40F2FE73BB600123FB60002322
:1010CC003B6102237B6107F108031946124800F0CB
:1010DC0013FC43F6FF73BB600123FB6000233B61F1
:1010EC0002237B6107F1080319460C4800F004FC4D
:1010FC004FF46053BB600023FB6000233B6107F19E
:10110C0008031946044800F0F7FB00BF1837BD462A
:10111C0080BD00BF0010024000080140000C0140DF
:10112C0080B400AF72B600BF00BFFDE780B485B0DD
:10113C0000AFF860B9607A60294B1B78072B4AD84E
:10114C00274B1B781946274A0B469B000B449B00E8
:10115C001344FA681A60224B1B781846BB68224A63
:10116C00A2FB0323DA081F4903469B0003449B00A0
:10117C000B4404331A601A4B1B7818467B681A4AC6
:10118C00A2FB0323DA08174903469B0003449B0088
:10119C000B4408331A60124B1B781946114A0B4644
:1011AC009B000B449B0013440C3300221A700C4B15
:1011BC001A780B4B1B78194610460A4A0B469B00B3
:1011CC000B449B00134410331860054B1B78013300
:1011DC00DAB2034B1A7000BF1437BD4680BC70479F
:1011EC00E401002044010020CDCCCCCC80B483B0F1
:1011FC0000AF00237B6048E02A497A6813469B00C5
:10120C0013449B000B4404331B68002B13D025495B
:10121C007A6813469B0013449B000B4404331B68F1
:10122C00591E20487A6813469B0013449B000344C4
:10123C000433196026E01B497A6813469B0013445B
:10124C009B000B440833196816487A6813469B00B8
:10125C0013449B0003440433196012497A68134603
:10126C009B0013449B000B440C331B780133D8B206
:10127C000C497A6813469B0013449B000B440C33B7
:10128C0002461A707B6801337B60074B1B781A4649
:10129C007B689342B0DB00BF00BF0C37BD4680BCFF
:1012AC00704700BF44010020E401002080B582B0EB
:1012BC0000AF00237B603AE022497A6813469B001A
:1012CC0013449B000B440C331B78002B2CD01D4972
:1012DC007A6813469B0013449B000B440C331B7819
:1012EC00013BD8B217497A6813469B0013449B0004
:1012FC000B440C3302461A7012497A6813469B0051
:10130C0013449B000B441B6898470E497A6813469C
:10131C009B0013449B000B4408331B68002B03D128
:10132C007B68184600F012F87B6801337B60064B33
:10133C001B781A467B689342BEDB00BF00BF0837A0
:10134C00BD4680BD44010020E4010020B0B485B04E
:10135C0000AF78607B68FB6017E0FB685A1C124892
:10136C00F9680B469B000B449B0018440E4913462E
:10137C009B0013449B000B4404461D460FCD0FC429
:10138C002B682360FB680133FB60FB68062BE4DDF4
:10139C00064B1B78013BDAB2044B1A7000BF1437B2
:1013AC00BD46B0BC704700BF44010020E4010020E2
:1013BC0080B485B000AF154B9B69144A43F0010310
:1013CC009361124B9B6903F00103BB60BB680F4B2D
:1013DC00DB690E4A43F08053D3610C4BDB6903F09D
:1013EC0080537B607B680A4B5B68FB60FB6823F077
:1013FC00E063FB60FB6843F08063FB60044AFB68BE
:10140C00536000BF1437BD4680BC704700100240CB
:10141C000000014080B584B000AF78607B681B6829
:10142C00B3F1804F13D10C4BDB690B4A43F0010332
:10143C00D361094BDB6903F00103FB60FB680022FD
:10144C0000211C2000F021FA1C2000F03AFA00BF09
:10145C001037BD4680BD00BF0010024080B400AF05
:10146C0000BFFDE780B400AF00BFFDE780B400AF64
:10147C0000BFFDE780B400AF00BFFDE780B400AF54
:10148C0000BFFDE780B400AF00BFBD4680BC704715
:10149C0080B400AF00BFBD4680BC704780B400AFC5
:1014AC0000BFBD4680BC704780B500AF00F0D6F8D9
:1014BC0000BF80BD80B500AF024801F05BF800BFF3
:1014CC0080BD00BFFC00002080B400AF00BFBD4653
:1014DC0080BC704780B483B000AF786039603B68E3
:1014EC00094A82FB03129210DB17D21A07497B6858
:1014FC0041F82320064A7B68002142F8231000BFE4
:10150C000C37BD4680BC704767666666E8010020F4
:10151C001002002080B483B000AF00237B6016E083
:10152C000F4A7B6852F823305A1E0D497B6841F8EC
:10153C0023200B4A7B6852F82330002B04D1094A34
:10154C007B68012142F823107B6801337B607B6848
:10155C00092BE5DD00BF00BF0C37BD4680BC7047D2
:10156C00E80100201002002080B582B000AF786046
:10157C00FFF7D0FFFEF73CFEFFF738FE00BF083741
:10158C00BD4680BDFFF7A0FF0B480C490C4A002359
:10159C0002E0D458C4500433C4188C42F9D3094A1D
:1015AC00094C002301E013600432A242FBD301F08A
:1015BC0029FBFFF7AFFC70470000002080000020E3
:1015CC009C2C0008800000203C020020FEE700005C
:1015DC0080B500AF084B1B68074A43F0100313603B
:1015EC00032000F047F90F2000F008F8FFF7E0FEA9
:1015FC000023184680BD00BF0020024080B582B099
:10160C0000AF7860124B1A68124B1B7819464FF4D6
:10161C007A73B3FBF1F3B2FBF3F3184600F05FF906
:10162C000346002B01D001230EE07B680F2B0AD858
:10163C00002279684FF0FF3000F027F9064A7B68EA
:10164C001360002300E0012318460837BD4680BD17
:10165C00740000207C0000207800002080B400AFD3
:10166C00054B1B781A46054B1B681344034A136041
:10167C0000BFBD4680BC70477C00002038020020B3
:10168C0080B400AF024B1B681846BD4680BC704747
:10169C003802002080B584B000AF7860FFF7F0FF0F
:1016AC00B8607B68FB60FB68B3F1FF3F05D00A4B69
:1016BC001B781A46FB681344FB6000BFFFF7E0FF82
:1016CC000246BB68D31AFA689A42F7D800BF00BF2B
:1016DC001037BD4680BD00BF7C00002080B485B0B3
:1016EC0000AF78607B6803F00703FB600C4BDB6892
:1016FC00BB60BA684FF6FF031340BB60FB681A026D
:10170C00BB68134343F0BF6343F40033BB60044A2C
:10171C00BB68D36000BF1437BD4680BC704700BFA8
:10172C0000ED00E080B400AF044BDB681B0A03F053
:10173C0007031846BD4680BC704700BF00ED00E0B3
:10174C0080B483B000AF0346FB7197F90730002BD0
:10175C000BDBFB7903F01F02064997F907305B0995
:10176C00012000FA02F241F8232000BF0C37BD46DD
:10177C0080BC704700E100E080B483B000AF03464A
:10178C003960FB7197F90730002B0ADB3B68DAB242
:10179C000C4997F907301201D2B20B4483F800239D
:1017AC000AE03B68DAB20849FB7903F00F03043B0B
:1017BC001201D2B20B441A7600BF0C37BD4680BC66
:1017CC00704700BF00E100E000ED00E080B489B09C
:1017DC0000AFF860B9607A60FB6803F00703FB6147
:1017EC00FB69C3F10703042B28BF0423BB61FB690E
:1017FC000433062B02D9FB69033B00E000237B6119
:10180C004FF0FF32BB6902FA03F3DA43BB681A40AC
:10181C007B699A404FF0FF317B6901FA03F3D9439E
:10182C007B680B40134318462437BD4680BC704779
:10183C0080B582B000AF78607B68013BB3F1807FEC
:10184C0001D301230FE00A4A7B68013B53600F214F
:10185C004FF0FF30FFF790FF054B00229A60044BCE
:10186C0007221A60002318460837BD4680BD00BF0A
:10187C0010E000E080B582B000AF78607868FFF7C8
:10188C002DFF00BF0837BD4680BD80B586B000AFC8
:10189C000346B9607A60FB7300237B61FFF742FF5C
:1018AC0078617A68B9687869FFF790FF024697F912
:1018BC000F3011461846FFF75FFF00BF1837BD46C3
:1018CC0080BD80B582B000AF0346FB7197F907303D
:1018DC001846FFF735FF00BF0837BD4680BD80B501
:1018EC0082B000AF78607868FFF7A2FF0346184615
:1018FC000837BD4680BD000080B48BB000AF786067
:10190C00396000237B6200233B6261E101227B6A28
:10191C0002FA03F3FB613B681B68FA691340BB6175
:10192C00BA69FB699A4240F050813B685B68974A00
:10193C0093425ED0954A934275D8954A934258D0BB
:10194C00934A93426FD8934A934252D0914A93420E
:10195C0069D8914A93424CD08F4A934263D88F4AAC
:10196C00934246D08D4A93425DD8122B2AD8122B23
:10197C0059D801A252F823F0FF190008D919000810
:10198C00EB1900082D1A0008331A0008331A000846
:10199C00331A0008331A0008331A0008331A0008E7
:1019AC00331A0008331A0008331A0008331A0008D7
:1019BC00331A0008331A0008331A0008E11900081A
:1019CC00F5190008764A934213D02CE03B68DB688B
:1019DC003B6229E03B68DB6804333B6224E03B68F4
:1019EC00DB6808333B621FE03B68DB680C333B620F
:1019FC001AE03B689B68002B02D104233B6213E086
:101A0C003B689B68012B05D108233B627B68FA6914
:101A1C001A6109E008233B627B68FA695A6103E0AA
:101A2C0000233B6200E000BFBB69FF2B01D87B6841
:101A3C0001E07B6804337B61BB69FF2B02D87B6AB6
:101A4C009B0002E07B6A083B9B003B617B691A6848
:101A5C000F213B6901FA03F3DB431A40396A3B69F6
:101A6C0001FA03F31A437B691A603B685B6803F065
:101A7C008053002B00F0A9804A4B9B69494A43F0E4
:101A8C0001039361474B9B6903F00103BB60BB6887
:101A9C00454A7B6A9B08023352F82330FB607B6A11
:101AAC0003F003039B000F2202FA03F3DB43FA68F3
:101ABC001340FB607B683D4A93420DD07B683C4AE7
:101ACC00934207D07B683B4A934201D1022304E046
:101ADC00032302E0012300E000237A6A02F00302F0
:101AEC0092009340FA681343FB602F497B6A9B0872
:101AFC000233FA6841F823203B685B6803F48013D7
:101B0C00002B06D02C4B9A682B49BB6913438B6076
:101B1C0006E0294B9A68BB69DB43274913408B606D
:101B2C003B685B6803F40013002B06D0224BDA6889
:101B3C002149BB691343CB6006E01F4BDA68BB69D4
:101B4C00DB431D491340CB603B685B6803F40033F7
:101B5C00002B06D0184B5A681749BB6913434B60CE
:101B6C0006E0154B5A68BB69DB43134913404B60C5
:101B7C003B685B6803F48033002B1FD00E4B1A6854
:101B8C000D49BB6913430B601FE000BF000032100E
:101B9C000000311000002210000021100000121073
:101BAC00000011100010024000000140000801402C
:101BBC00000C014000100140000401400B4B1A685E
:101BCC00BB69DB43094913400B607B6A01337B62C1
:101BDC003B681A687B6A22FA03F3002B7FF496AEFB
:101BEC0000BF00BF2C37BD4680BC704700040140CD
:101BFC0080B485B000AF78600B467B807B689A68B8
:101C0C007B881340002B02D00123FB7301E00023DF
:101C1C00FB73FB7B18461437BD4680BC704780B401
:101C2C0083B000AF78600B467B8013467B707B786B
:101C3C00002B03D07A887B681A6103E07B881A0436
:101C4C007B681A6100BF0C37BD4680BC704780B4FE
:101C5C0085B000AF78600B467B807B68DB68FB60EF
:101C6C007A88FB6813401A04FB68D9437B880B40C5
:101C7C001A437B681A6100BF1437BD4680BC70479D
:101C8C0080B586B000AF78607B68002B01D1012352
:101C9C0072E27B681B6803F00103002B00F0878065
:101CAC00924B5B6803F00C03042B0CD08F4B5B68DE
:101CBC0003F00C03082B12D18C4B5B6803F48033BC
:101CCC00B3F5803F0BD1894B1B6803F40033002B19
:101CDC006CD07B685B68002B68D101234CE27B687D
:101CEC005B68B3F5803F06D1804B1B687F4A43F499
:101CFC00803313602EE07B685B68002B0CD17B4B30
:101D0C001B687A4A23F480331360784B1B68774A3C
:101D1C0023F4802313601DE07B685B68B3F5A02F70
:101D2C000CD1724B1B68714A43F4802313606F4BC8
:101D3C001B686E4A43F4803313600BE06B4B1B68DB
:101D4C006A4A23F480331360684B1B68674A23F498
:101D5C00802313607B685B68002B13D0FFF790FC2B
:101D6C00386108E0FFF78CFC02463B69D31A642B00
:101D7C0001D9032300E25D4B1B6803F40033002BF5
:101D8C00F0D014E0FFF77CFC386108E0FFF778FC3A
:101D9C0002463B69D31A642B01D90323ECE1534B64
:101DAC001B6803F40033002BF0D100E000BF7B680C
:101DBC001B6803F00203002B63D04C4B5B6803F0F1
:101DCC000C03002B0BD0494B5B6803F00C03082B66
:101DDC001CD1464B5B6803F48033002B16D1434B6C
:101DEC001B6803F00203002B05D07B681B69012BD9
:101DFC0001D00123C0E13D4B1B6823F0F8027B6846
:101E0C005B69DB00394913430B603AE07B681B6963
:101E1C00002B20D0364B01221A60FFF731FC3861C1
:101E2C0008E0FFF72DFC02463B69D31A022B01D9BF
:101E3C000323A1E12D4B1B6803F00203002BF0D010
:101E4C002A4B1B6823F0F8027B685B69DB0027498F
:101E5C0013430B6015E0264B00221A60FFF710FCB1
:101E6C00386108E0FFF70CFC02463B69D31A022BE1
:101E7C0001D9032380E11D4B1B6803F00203002BE7
:101E8C00F0D17B681B6803F00803002B3AD07B6809
:101E9C009B69002B19D0174B01221A60FFF7F0FB3E
:101EAC00386108E0FFF7ECFB02463B69D31A022BC2
:101EBC0001D9032360E10D4B5B6A03F00203002B95
:101ECC00F0D0012000F09CFA1CE00A4B00221A60B2
:101EDC00FFF7D6FB38610FE0FFF7D2FB02463B69F8
:101EEC00D31A022B08D9032346E100BF001002408D
:101EFC000000424280044242924B5B6A03F00203B0
:101F0C00002BE9D17B681B6803F00403002B00F065
:101F1C00A6800023FB758B4BDB6903F08053002BF1
:101F2C000DD1884BDB69874A43F08053D361854BD5
:101F3C00DB6903F08053BB60BB680123FB75824BEC
:101F4C001B6803F48073002B18D17F4B1B687E4AEF
:101F5C0043F480731360FFF793FB386108E0FFF7DD
:101F6C008FFB02463B69D31A642B01D9032303E18F
:101F7C00754B1B6803F48073002BF0D07B68DB6817
:101F8C00012B06D16F4B1B6A6E4A43F0010313629F
:101F9C002DE07B68DB68002B0CD16A4B1B6A694A0D
:101FAC0023F001031362674B1B6A664A23F0040398
:101FBC0013621CE07B68DB68052B0CD1614B1B6A40
:101FCC00604A43F0040313625E4B1B6A5D4A43F0A4
:101FDC00010313620BE05B4B1B6A5A4A23F00103AB
:101FEC001362584B1B6A574A23F0040313627B6835
:101FFC00DB68002B15D0FFF743FB38610AE0FFF7D5
:10200C003FFB02463B69D31A41F28832934201D915
:10201C000323B1E04B4B1B6A03F00203002BEED001
:10202C0014E0FFF72DFB38610AE0FFF729FB0246AD
:10203C003B69D31A41F28832934201D903239BE0C6
:10204C00404B1B6A03F00203002BEED1FB7D012BEE
:10205C0005D13C4BDB693B4A23F08053D3617B6851
:10206C00DB69002B00F08780364B5B6803F00C03B8
:10207C00082B61D07B68DB69022B46D1334B0022E5
:10208C001A60FFF7FDFA386108E0FFF7F9FA02462B
:10209C003B69D31A022B01D903236DE0294B1B6832
:1020AC0003F00073002BF0D17B681B6AB3F5803F03
:1020BC0008D1244B5B6823F400327B689B68214970
:1020CC0013434B601F4B5B6823F474127B68196AD3
:1020DC007B685B6A0B431B4913434B601B4B012210
:1020EC001A60FFF7CDFA386108E0FFF7C9FA02462B
:1020FC003B69D31A022B01D903233DE0114B1B681A
:10210C0003F00073002BF0D035E0104B00221A6066
:10211C00FFF7B6FA386108E0FFF7B2FA02463B69FE
:10212C00D31A022B01D9032326E0064B1B6803F0BC
:10213C000073002BF0D11EE07B68DB69012B07D10B
:10214C00012319E000100240007000406000424280
:10215C000B4B5B68FB60FB6803F480327B681B6A8B
:10216C009A4206D1FB6803F470127B685B6A9A4250
:10217C0001D0012300E0002318461837BD4680BD6E
:10218C000010024080B584B000AF786039607B6885
:10219C00002B01D10123D0E06A4B1B6803F007032D
:1021AC003A689A4210D9674B1B6823F007026549BD
:1021BC003B6813430B60634B1B6803F007033A68DF
:1021CC009A4201D00123B8E07B681B6803F002033C
:1021DC00002B20D07B681B6803F00403002B05D078
:1021EC00594B5B68584A43F4E06353607B681B6847
:1021FC0003F00803002B05D0534B5B68524A43F4A1
:10220C0060535360504B5B6823F0F0027B689B6813
:10221C004D4913434B607B681B6803F00103002B93
:10222C0040D07B685B68012B07D1474B1B6803F4DC
:10223C000033002B15D101237FE07B685B68022BF8
:10224C0007D1414B1B6803F00073002B09D101230C
:10225C0073E03D4B1B6803F00203002B01D10123FB
:10226C006BE0394B5B6823F003027B685B68364993
:10227C0013434B60FFF704FAF8600AE0FFF700FA2B
:10228C000246FB68D31A41F28832934201D90323E8
:10229C0053E02D4B5B6803F00C027B685B689B0082
:1022AC009A42EBD1274B1B6803F007033A689A421A
:1022BC0010D2244B1B6823F0070222493B681343BE
:1022CC000B60204B1B6803F007033A689A4201D05D
:1022DC00012332E07B681B6803F00403002B08D059
:1022EC00194B5B6823F4E0627B68DB681649134387
:1022FC004B607B681B6803F00803002B09D0124B62
:10230C005B6823F460527B681B69DB000E49134346
:10231C004B6000F021F802460B4B5B681B0903F085
:10232C000F030A49CB5C22FA03F3094A1360094BE9
:10233C001B681846FFF762F9002318461037BD4694
:10234C0080BD00BF0020024000100240702C00082D
:10235C00740000207800002080B487B000AF002308
:10236C00FB600023BB6000237B6100237B600023A8
:10237C003B611E4B5B68FB60FB6803F00C03042B9A
:10238C0002D0082B03D027E0194B3B6127E0FB68F8
:10239C009B0C03F00F03174AD35C7B60FB6803F4C0
:1023AC008033002B10D0114B5B685B0C03F00103E6
:1023BC00114AD35CBB607B680D4A03FB02F2BB681D
:1023CC00B2FBF3F37B6104E07B680C4A02FB03F382
:1023DC007B617B693B6102E0054B3B6100BF3B6964
:1023EC0018461C37BD4680BC704700BF0010024029
:1023FC0000127A00802C0008902C000800093D0087
:10240C0080B485B000AF78600A4B1B680A4AA2FB07
:10241C0003235B0A7A6802FB03F3FB6000BFFB68D3
:10242C005A1EFA60002BF9D100BF00BF1437BD460D
:10243C0080BC704774000020D34D621080B582B010
:10244C0000AF78607B68002B01D1012341E07B68F1
:10245C0093F83D30DBB2002B06D17B68002283F869
:10246C003C207868FEF7D6FF7B68022283F83D207B
:10247C007B681A687B6804331946104600F056FADC
:10248C007B68012283F846207B68012283F83E207A
:10249C007B68012283F83F207B68012283F840206F
:1024AC007B68012283F841207B68012283F842205B
:1024BC007B68012283F843207B68012283F8442047
:1024CC007B68012283F845207B68012283F83D203C
:1024DC00002318460837BD4680BD000080B485B087
:1024EC0000AF78607B6893F83D30DBB2012B01D0F4
:1024FC00012335E07B68022283F83D207B681B6852
:10250C00DA687B681B6842F00102DA607B681B6842
:10251C00164A934209D07B681B68B3F1804F04D0F4
:10252C007B681B68124A934211D17B681B689B68BD
:10253C0003F00703FB60FB68062B10D07B681B685D
:10254C001A687B681B6842F001021A6007E07B681E
:10255C001B681A687B681B6842F001021A60002332
:10256C0018461437BD4680BC704700BF002C014094
:10257C000004004080B584B000AF78607B681B68B5
:10258C00DB68FB607B681B681B69BB60BB6803F086
:10259C000203002B20D0FB6803F00203002B1BD09E
:1025AC007B681B686FF002021A617B6801221A7744
:1025BC007B681B689B6903F00303002B03D07868CE
:1025CC0000F098F905E0786800F08BF9786800F075
:1025DC009AF97B6800221A77BB6803F00403002B7E
:1025EC0020D0FB6803F00403002B1BD07B681B6816
:1025FC006FF004021A617B6802221A777B681B68F1
:10260C009B6903F44073002B03D0786800F072F9D7
:10261C0005E0786800F065F9786800F074F97B687B
:10262C0000221A77BB6803F00803002B20D0FB684C
:10263C0003F00803002B1BD07B681B686FF00802AB
:10264C001A617B6804221A777B681B68DB6903F0CC
:10265C000303002B03D0786800F04CF905E0786890
:10266C0000F03FF9786800F04EF97B6800221A7789
:10267C00BB6803F01003002B20D0FB6803F01003A1
:10268C00002B1BD07B681B686FF010021A617B68F3
:10269C0008221A777B681B68DB6903F44073002BF4
:1026AC0003D0786800F026F905E0786800F019F995
:1026BC00786800F028F97B6800221A77BB6803F071
:1026CC000103002B0CD0FB6803F00103002B07D097
:1026DC007B681B686FF001021A617868FEF744FF93
:1026EC00BB6803F08003002B0CD0FB6803F0800365
:1026FC00002B07D07B681B686FF080021A6178682A
:10270C0000F06FFABB6803F04003002B0CD0FB68A1
:10271C0003F04003002B07D07B681B686FF040026E
:10272C001A61786800F0F8F8BB6803F02003002BFE
:10273C000CD0FB6803F02003002B07D07B681B68D0
:10274C006FF020021A61786800F042FA00BF10376F
:10275C00BD4680BD80B584B000AF78603960002381
:10276C00FB737B6893F83C30012B01D10223B4E05E
:10277C007B68012283F83C207B68022283F83D2091
:10278C007B681B689B68BB60BB6823F07703BB60EE
:10279C00BB6823F47F43BB607B681B68BA689A6094
:1027AC003B681B68B3F5005F3ED0B3F5005F00F2E9
:1027BC008780B3F5805F00F08680B3F5805F7FD8AB
:1027CC00702B1AD0702B7BD8602B50D0602B77D805
:1027DC00502B3CD0502B73D8402B58D0402B6FD85B
:1027EC00302B64D0302B6BD8202B60D0202B67D8AB
:1027FC00002B5CD0102B5AD062E07B6818683B68C9
:10280C0099683B685A683B68DB6800F06AF97B683A
:10281C001B689B68BB60BB6843F07703BB607B683D
:10282C001B68BA689A604FE07B6818683B689968C7
:10283C003B685A683B68DB6800F053F97B681B689F
:10284C009A687B681B6842F480429A603CE07B6823
:10285C0018683B6859683B68DB681A4600F0CAF890
:10286C007B681B685021184600F021F92CE07B682E
:10287C0018683B6859683B68DB681A4600F0E8F852
:10288C007B681B686021184600F011F91CE07B681E
:10289C0018683B6859683B68DB681A4600F0AAF870
:1028AC007B681B684021184600F001F90CE07B683E
:1028BC001A683B681B681946104600F0F8F803E0EC
:1028CC000123FB7300E000BF7B68012283F83D20ED
:1028DC007B68002283F83C20FB7B18461037BD46F2
:1028EC0080BD80B483B000AF786000BF0C37BD46AC
:1028FC0080BC704780B483B000AF786000BF0C37E9
:10290C00BD4680BC704780B483B000AF786000BF18
:10291C000C37BD4680BC704780B483B000AF786084
:10292C0000BF0C37BD4680BC7047000080B485B03A
:10293C0000AF786039607B681B68FB607B682B4A52
:10294C00934207D07B68B3F1804F03D07B68284A51
:10295C00934208D1FB6823F07003FB603B685B6813
:10296C00FA681343FB607B68204A934207D07B686C
:10297C00B3F1804F03D07B681D4A934208D1FB68AA
:10298C0023F44073FB603B68DB68FA681343FB601D
:10299C00FB6823F080023B685B691343FB607B6838
:1029AC00FA681A603B689A687B68DA623B681A6856
:1029BC007B689A627B680D4A934203D13B681A6923
:1029CC007B681A637B6801225A617B681B6903F080
:1029DC000103002B05D07B681B6923F001027B6887
:1029EC001A6100BF1437BD4680BC7047002C0140F3
:1029FC000004004080B487B000AFF860B9607A6022
:102A0C00FB681B6A7B61FB681B6A23F00102FB6895
:102A1C001A62FB689B693B613B6923F0F0033B61E5
:102A2C007B681B013A6913433B617B6923F00A0302
:102A3C007B617A69BB6813437B61FB683A699A6175
:102A4C00FB687A691A6200BF1C37BD4680BC7047B0
:102A5C0080B487B000AFF860B9607A60FB681B6A1D
:102A6C007B61FB681B6A23F01002FB681A62FB682F
:102A7C009B693B613B6923F470433B617B681B039F
:102A8C003A6913433B617B6923F0A0037B61BB680C
:102A9C001B017A6913437B61FB683A699A61FB6895
:102AAC007A691A6200BF1C37BD4680BC704780B47F
:102ABC0085B000AF786039607B689B68FB60FB6811
:102ACC0023F07003FB603A68FB68134343F0070381
:102ADC00FB607B68FA689A6000BF1437BD4680BC07
:102AEC00704780B487B000AFF860B9607A603B6023
:102AFC00FB689B687B617B6923F47F437B613B684C
:102B0C001A027B681A43BB6813437A6913437B61CF
:102B1C00FB687A699A6000BF1C37BD4680BC704761
:102B2C0080B485B000AF786039607B6893F83C3036
:102B3C00012B01D1022341E07B68012283F83C2068
:102B4C007B68022283F83D207B681B685B68FB6016
:102B5C007B681B689B68BB60FB6823F07003FB60A1
:102B6C003B681B68FA681343FB607B681B68FA6858
:102B7C005A607B681B68144A934209D07B681B68B7
:102B8C00B3F1804F04D07B681B68104A93420CD180
:102B9C00BB6823F08003BB603B685B68BA68134377
:102BAC00BB607B681B68BA689A607B68012283F8FB
:102BBC003D207B68002283F83C2000231846143704
:102BCC00BD4680BC704700BF002C01400004004093
:102BDC0080B483B000AF786000BF0C37BD4680BCBA
:102BEC00704780B483B000AF786000BF0C37BD462F
:102BFC0080BC704703460244934200D1704703F8EF
:102C0C00011BF9E770B500260C4D0D4C641BA4108C
:102C1C00A64209D100F01AF800260A4D0A4C641B92
:102C2C00A410A64205D170BD55F8043B9847013657
:102C3C00EEE755F8043B98470136F2E7942C000870
:102C4C00942C0008942C0008982C0008F8B500BFB0
:102C5C00F8BC08BC9E467047F8B500BFF8BC08BC71
:042C6C009E467047C9
:102C7000000000000000000001020304060708092C
:102C800002030405060708090A0B0C0D0E0F1010AD
:042C9000010200003D
:042C94003101000802
:042C98000D01000822
:102C9C00E7030000E7030000E70300001900000051
:102CAC0005000000140000001900000005000000E1
:102CBC0014000000000000000000010100000101F0
:102CCC0001010000010000010000000000010100F2
:102CDC0001000001010000000100000100000001E2
:102CEC0000000000000000000101010100000000D4
:102CFC0000000000000000010000010101010101C1
:102D0C000100000000127A00100000000100000019
:040000050800159149
:00000001FF
